:020000040800F2
:10000000002800200D180008591700086117000883
:100010006917000871170008791700080000000030
:100020000000000000000000000000008117000830
:100030008D1700080000000099170008A517000898
:1000400055180008551800085518000855180008DC
:1000500055180008551800085518000855180008CC
:1000600055180008551800085518000855180008BC
:1000700055180008551800085518000855180008AC
:10008000551800085518000855180008551800089C
:10009000551800085518000855180008551800088C
:1000A000551800085518000855180008551800087C
:1000B000B117000855180008000000005518000886
:1000C0005518000800000000000000005518000846
:1000D0000000000055180008551800080000000036
:1000E00055180008551800085518000800000000B1
:1000F0000000000000000000000000000000000000
:0C01000000000000000000005FF808F1A3
:10010C0010B5054C237833B9044B13B10448AFF345
:10011C0000800123237010BD20000020000000008F
:10012C00A02E000808B5034B1BB103490348AFF3DD
:10013C00008008BD0000000024000020A02E000854
:10014C0080B483B000AF00237B6007E0084A7B6873
:10015C00134401221A707B6801337B607B68022B8D
:10016C00F4DD00BF00BF0C37BD4680BC704700BF3C
:10017C003C00002080B582B000AF0023FB7144E04E
:10018C00FB79264AD35C012B02D0022B2BD039E011
:10019C00FB79184600F072FE0346002B2FD020216D
:1001AC001F4801F06EFEFB791C4A0221D154FB79E9
:1001BC00002B0CBF01230023DBB21A46194B1A701B
:1001CC00FB79012B0CBF01230023DBB21A46164B23
:1001DC001A70FB79022B0CBF01230023DBB21A46E9
:1001EC00124B1A700BE0FB79184600F047FE0346E1
:1001FC00002B06D1FB79094A0121D15402E000BF42
:10020C0000E000BFFB790133FB71FB79022BB7D9FE
:10021C0000BF00BF0837BD4680BD00BF3C000020BA
:10022C000008014042000020430000204400002050
:10023C0080B582B000AF0346FB71FB7903F020035D
:10024C00DBB21A4610211B4801F003FEFB7903F0C8
:10025C001003DBB21A462021164801F0FAFDFB7997
:10026C0003F00803DBB21A464021124801F0F1FDFD
:10027C00FB7903F00403DBB21A4680210D4801F030
:10028C00E8FDFB7903F00203DBB21A464FF48071F0
:10029C00084801F0DEFDFB7903F00103DBB21A46DE
:1002AC004FF40071034801F0D4FD00BF0837BD4680
:1002BC0080BD00BF0008014080B500AF2B4B1A7801
:1002CC002B4B1A702B4B1A782B4B1A702B4B1A7812
:1002DC002B4B1A70264B1B782A4AA2FB0323DB08F4
:1002EC00DBB21A46284B1A60214B1A78254BA3FB1C
:1002FC000213D9080B469B000B445B00D31ADBB2EC
:10030C001A46214B5A601E4B1B781E4AA2FB032334
:10031C00DB08DBB21A461C4B9A60194B1A78194B46
:10032C00A3FB0213D9080B469B000B445B00D31AAA
:10033C00DBB21A46144BDA60144B00221A70144BC1
:10034C0000221A70002000F0CFFE1E20FFF770FF75
:10035C0000224FF47A710F4801F0AEF8FA22FA211C
:10036C000D4801F0A9F800BF80BD00BF00000020BF
:10037C0003000020010000200400002002000020E7
:10038C0005000020CDCCCCCC540000204100002036
:10039C0046000020210C0008510C000880B500AF6D
:1003AC001B4B00221A601A4B02225A60194B1B7805
:1003BC00194AA2FB0323DB08DBB21A46144B9A60E2
:1003CC00144B1A78144BA3FB0213D9080B469B0051
:1003DC000B445B00D31ADBB21A460D4BDA600F4BA1
:1003EC0000221A700B4B1A780D4B1A700D4B002211
:1003FC001A70002000F078FE1B20FFF719FF002276
:10040C004FF4FA71084801F057F800BF80BD00BFE7
:10041C005400002000000020CDCCCCCC46000020A5
:10042C000300002047000020390C000880B500AF05
:10043C001B4B00221A601A4B03225A60194B1B7873
:10044C00194AA2FB0323DB08DBB21A46144B9A6051
:10045C00144B1A78144BA3FB0213D9080B469B00C0
:10046C000B445B00D31ADBB21A460D4BDA600F4B10
:10047C0000221A700B4B1A780D4B1A700D4B002280
:10048C001A70002000F030FE2D20FFF7D1FE002264
:10049C004FF4FA71084801F00FF800BF80BD00BF9F
:1004AC005400002001000020CDCCCCCC4600002014
:1004BC000400002047000020390C000880B500AF74
:1004CC001A4B00221A60194B04225A60184B1B78E5
:1004DC00184AA2FB0323DB08DBB21A46134B9A60C3
:1004EC00134B1A78134BA3FB0213D9080B469B0032
:1004FC000B445B00D31ADBB21A460C4BDA600E4B82
:10050C0000221A700D4B00221A700D4B00221A702B
:10051C00002000F0E9FD3620FFF78AFE00224FF4A0
:10052C00FA71084800F0C8FF00BF80BD54000020DD
:10053C0002000020CDCCCCCC4600002005000020D1
:10054C0047000020390C000880B500AF9A4B1B788F
:10055C000B3B032B00F2008201A252F823F000BFE8
:10056C007D0500086B06000859070008790800088B
:10057C001E20FFF75DFE914B1B78012B22D1202111
:10058C008F4801F07EFC00224FF47A718D4800F008
:10059C0093FF8A4B00221A708B4B1B78013BDAB20B
:1005AC00894B1A70884B1B78002B0CBF012300233E
:1005BC00DBB21A46854B1A70854B1B78013BDAB2BD
:1005CC00834B1A70814B1B78012B0AD17F4B002275
:1005DC001A70794B0C221A707E4B1A787A4B1A705F
:1005EC00C3E17D4B1B78012B40F0B8817A4B002284
:1005FC001A70774B1B78794AA2FB0323DB08DBB21A
:10060C001A46774B1A60724B1A78744BA3FB021381
:10061C00D9080B469B000B445B00D31ADBB21A467D
:10062C006F4B5A60684B1B786C4AA2FB0323DB08A8
:10063C00DBB21A466A4B9A60634B1A78674BA3FB82
:10064C000213D9080B469B000B445B00D31ADBB298
:10065C001A46634BDA60012000F046FD7EE11D2056
:10066C00FFF7E6FD554B1B78012B1ED100224FF4F2
:10067C007A71544800F020FF504B00221A70594BED
:10068C001B78013BDAB2574B1A70564B1B78002B78
:10069C000CBF01230023DBB21A464C4B1A704C4B97
:1006AC001B78013BDAB24A4B1A70484B1B78012B72
:1006BC000ED1464B00221A703F4B0D221A704A4B3A
:1006CC001A78434B1A70494B1A78464B1A704CE106
:1006DC00414B1B78012B40F043813F4B00221A7099
:1006EC003B4B1B783D4AA2FB0323DB08DBB21A46CB
:1006FC003B4B1A60364B1A78384BA3FB0213D908C4
:10070C000B469B000B445B00D31ADBB21A46344BEE
:10071C005A60344B1B78314AA2FB0323DB08DBB253
:10072C001A462F4B9A602F4B1A782C4BA3FB0213B3
:10073C00D9080B469B000B445B00D31ADBB21A465C
:10074C00274BDA60012000F0CFFC09E13320FFF7E2
:10075C006FFD1A4B1B78012B1ED100224FF47A71BE
:10076C00184800F0A9FE154B00221A70164B1B7886
:10077C00013BDAB2144B1A70134B1B78002B0CBFD5
:10078C0001230023DBB21A46104B1A70104B1B7856
:10079C00013BDAB20E4B1A700C4B1B78012B27D194
:1007AC000A4B00221A70044B0E221A70094B1A784D
:1007BC00054B1A70D9E000BF400000204500002016
:1007CC0000080140210C0008050000204100002019
:1007DC00030000200200002046000020CDCCCCCC31
:1007EC005400002004000020000000200100002024
:1007FC005F4B1B78012B40F0B5805D4B00221A70CB
:10080C005C4B1B785C4AA2FB0323DB08DBB21A4669
:10081C005A4B1A60574B1A78574BA3FB0213D90843
:10082C000B469B000B445B00D31ADBB21A46534BAE
:10083C005A60534B1B78504AA2FB0323DB08DBB2F4
:10084C001A464E4B9A604E4B1A784B4BA3FB021335
:10085C00D9080B469B000B445B00D31ADBB21A463B
:10086C00464BDA60012000F03FFC7BE02B20FFF7C9
:10087C00DFFC444B1B78012B1ED100224FF47A7104
:10088C00414800F019FE3F4B00221A703F4B1B7879
:10089C00013BDAB23D4B1A703C4B1B78002B0CBF62
:1008AC0001230023DBB21A46394B1A70344B1B78E8
:1008BC00013BDAB2324B1A70354B1B78012B0ED13F
:1008CC00334B00221A70334B0B221A70324B1A78AE
:1008DC002B4B1A70314B1A782C4B1A7045E0244B69
:1008EC001B78012B40D1224B00221A70274B1B780E
:1008FC00214AA2FB0323DB08DBB21A461F4B1A600A
:10090C00224B1A781C4BA3FB0213D9080B469B00F5
:10091C000B445B00D31ADBB21A46184B5A60184BC7
:10092C001B78154AA2FB0323DB08DBB21A46134BD8
:10093C009A60134B1A78104BA3FB0213D9080B4681
:10094C009B000B445B00D31ADBB21A460B4BDA60EC
:10095C00012000F0C9FB07E000BF06E000BF04E087
:10096C0000BF02E000BF00E000BF00BF80BD00BFC1
:10097C004600002005000020CDCCCCCC540000203B
:10098C000300002045000020210C0008040000207A
:10099C004100002040000020000000200100002049
:1009AC0080B500AF00224FF4FA71254800F084FDA9
:1009BC00244B1B78012B12D1224B00221A70224B94
:1009CC001B780133DAB2204B1A701F4B1B78642B47
:1009DC0002D01D4B1B7800E002231B4A13701B4BEB
:1009EC001B78012B06D1194B00221A70164B1A7862
:1009FC00174B1A70174B1B78012B1ED1154B00226D
:100A0C001A70114B1B78144AA2FB0323DB08DBB2D0
:100A1C001A46124B9A600C4B1A780F4BA3FB02131D
:100A2C00D9080B469B000B445B00D31ADBB21A4669
:100A3C000A4BDA60012000F057FB00BF80BD00BFFD
:100A4C00390C000843000020030000204400002063
:100A5C000000002046000020CDCCCCCC540000205F
:100A6C0080B500AF00224FF4FA712B4800F024FD42
:100A7C002A4B1B78012B12D1284B00221A70284BC1
:100A8C001B780133DAB2264B1A70254B1B78642B7A
:100A9C0002D0234B1B7800E00123214A1370214B19
:100AAC001B78012B12D11F4B00221A701C4B1A7889
:100ABC001D4B1B789A4202D2194B1B7800E0012384
:100ACC001A4A1370194B1A78154B1A70184B1B785D
:100ADC00012B1ED1164B00221A70114B1B78154A94
:100AEC00A2FB0323DB08DBB21A46134B9A600C4BB8
:100AFC001A78104BA3FB0213D9080B469B000B442E
:100B0C005B00D31ADBB21A460B4BDA60012000F003
:100B1C00EBFA00BF80BD00BF390C00084300002079
:100B2C0004000020440000200000002001000020F0
:100B3C0046000020CDCCCCCC5400002080B500AFBA
:100B4C0000224FF4FA71294800F0B6FC284B1B78B0
:100B5C00012B12D1264B00221A70264B1B78013325
:100B6C00DAB2244B1A70234B1B78642B02D0214B26
:100B7C001B7800E001231F4A13701F4B1B78012BBD
:100B8C000ED11D4B00221A701C4B1A781C4B1B7873
:100B9C00D31ADAB21B4B1A701A4B1A78154B1A70FF
:100BAC00194B1B78012B1ED1174B00221A70114BBD
:100BBC001B78164AA2FB0323DB08DBB21A46144B44
:100BCC009A600C4B1A78114BA3FB0213D9080B46F5
:100BDC009B000B445B00D31ADBB21A460C4BDA6059
:100BEC00012000F081FA00BF80BD00BF390C000865
:100BFC0043000020050000204400002000000020DD
:100C0C00010000200200002046000020CDCCCCCCFE
:100C1C005400002080B400AF034B01221A7000BFB7
:100C2C00BD4680BC704700BF4500002080B400AFBB
:100C3C00034B01221A7000BFBD4680BC704700BF39
:100C4C004700002080B400AF034B01221A7000BF94
:100C5C00BD4680BC704700BF4600002080B500AF89
:100C6C00044B01221A70044B0B221A70FFF724FB61
:100C7C0000BF80BD3F0000204000002080B500AFC9
:100C8C00444B1B78013B032B79D801A252F823F07B
:100C9C00AD0C0008CD0C00080B0D00084B0D000826
:100CAC003D4B1B78012B08D13B4B00221A70394B62
:100CBC0002221A70FFF772FB62E0FFF745FC5FE05F
:100CCC00354B1B78012B08D1334B00221A70314B5A
:100CDC0003221A70FFF7AAFB52E0304B1B78012B52
:100CEC000AD12E4B00221A7010212D4801F0C9F8A0
:100CFC0080212B4801F0C5F8FFF752FE40E0264B4F
:100D0C001B78012B08D1244B00221A70214B042292
:100D1C001A70FFF7D3FB33E0204B1B78012B0BD160
:100D2C001E4B00221A7020211D4801F0AAF84FF426
:100D3C0080711B4801F0A5F8FFF792FE20E0164BDE
:100D4C001B78012B08D1144B00221A70114B012275
:100D5C001A70FFF783FF13E0104B1B78012B0BD19C
:100D6C000E4B00221A7040210D4801F08AF84FF406
:100D7C0000710B4801F085F8FFF7E0FE00E000BFC2
:100D8C00084B1B78012B02D1064B00221A7000BFB6
:100D9C0080BD00BF3F000020420000204700002023
:100DAC00000801404500002080B483B000AF002350
:100DBC00FB710EE0FB790B4A0121D154FB790A4AF5
:100DCC000121D154FB79094A0121D154FB7901331A
:100DDC00FB71FB79022BEDD900BF00BF0C37BD4670
:100DEC0080BC7047480000204C00002050000020C0
:100DFC0080B582B000AF00237B602EE01B4A7B687D
:100E0C00134419781A4A7B6813440A461A70022252
:100E1C007B6802FA03F39BB21946164801F002F8FC
:100E2C0003461946114A7B6813440A461A700F4A46
:100E3C007B6813441A780E497B680B441B789A42E2
:100E4C0008D10A4A7B68134419780B4A7B6813440F
:100E5C000A461A707B6801337B607B68022BCDDD00
:100E6C0000BF00BF0837BD4680BD00BF4800002052
:100E7C004C000020000801405000002080B483B0DA
:100E8C0000AF0346FB71FB79022B01D9002307E06D
:100E9C00FB79064AD35C002B0CBF01230023DBB289
:100EAC0018460C37BD4680BC704700BF5000002070
:100EBC0080B582B000AF78602B4A7B6813441B78F6
:100ECC0003F04003DBB21A460221284800F0C1FFB0
:100EDC00254A7B6813441B7803F02003DBB21A46C7
:100EEC000421224800F0B5FF1F4A7B6813441B788D
:100EFC0003F01003DBB21A4608211C4800F0A9FFCE
:100F0C00194A7B6813441B7803F00803DBB21A46BA
:100F1C001021164800F09DFF134A7B6813441B7880
:100F2C0003F00403DBB21A462021104800F091FFB5
:100F3C000D4A7B6813441B7803F00203DBB21A469C
:100F4C0040210A4800F085FF074A7B6813441B7850
:100F5C0003F00103DBB21A468021044800F079FF4C
:100F6C0000BF0837BD4680BD08000020000C0140C2
:100F7C0080B582B000AF78602F4A7B6813441B7831
:100F8C0003F04003DBB21A464FF480712B4800F09B
:100F9C0060FF294A7B6813441B7803F02003DBB203
:100FAC001A464FF40071254800F053FF224A7B6823
:100FBC0013441B7803F01003DBB21A464FF4806124
:100FCC001E4800F046FF1C4A7B6813441B7803F054
:100FDC000803DBB21A464FF40061184800F039FFE1
:100FEC00154A7B6813441B7803F00403DBB21A46E2
:100FFC004FF48051114800F02CFF0F4A7B681344CA
:10100C001B7803F00203DBB21A464FF400510B4875
:10101C0000F01FFF084A7B6813441B7803F00103A0
:10102C00DBB21A464FF48041044800F012FF00BFB7
:10103C000837BD4680BD00BF08000020000C0140F1
:10104C0080B582B000AF78607B68032B22D801A2F8
:10105C0052F823F0711000087D1000088910000868
:10106C00951000081E4B1B681846FFF721FF12E075
:10107C001B4B5B681846FFF71BFF0CE0184B9B687B
:10108C001846FFF775FF06E0154BDB681846FFF7AF
:10109C006FFF00E000BF7B68002B04D07B68022B45
:1010AC0001D0012300E00023DBB21A464FF480414B
:1010BC000C4800F0CEFE7B68012B04D07B68032B20
:1010CC0001D0012300E00023DBB21A464FF40041AB
:1010DC00044800F0BEFE00BF0837BD4680BD00BF0F
:1010EC00540000200008014080B582B000AF0346D8
:1010FC00FB71114B1A78FB791340DBB2002B02D039
:10110C00012B0AD013E00120FFF79AFF0320FFF711
:10111C0097FF094B01221A7009E00020FFF790FF9E
:10112C000220FFF78DFF044B00221A7000BF00BF96
:10113C000837BD4680BD00BF6400002080B500AFFD
:10114C0000F084FB00F02AF800F0B0F800F062F830
:10115C00104801F0E7FA01F06DFA0E4B5B680D4A8E
:10116C00D268194600F02EFB00F018F90A220A2169
:10117C00094800F0A1F9FFF717FEFEF7E1FFFFF7B2
:10118C006DFD00F033FAFEF7F5FFFFF777FD00BFBA
:10119C00F7E700BF68000020FD0D000880B590B097
:1011AC0000AF07F1180328220021184601F046FE73
:1011BC003B1D00221A605A609A60DA601A610223A1
:1011CC00BB610123BB621023FB6200237B6307F12D
:1011DC001803184600F06EFE0346002B01D000F0F9
:1011EC00D6F80F237B600023BB600023FB60002339
:1011FC003B6100237B613B1D0021184601F0DCF8AC
:10120C000346002B01D000F0C2F800BF4037BD46AA
:10121C0080BD000080B586B000AF07F10803002246
:10122C001A605A609A60DA603B4600221A605A6073
:10123C001D4B4FF080421A601B4B41F63F725A60B7
:10124C00194B00229A60184B0922DA60164B0022C7
:10125C001A61154B00229A61134801F013FA0346E8
:10126C00002B01D000F093F84FF48053BB6007F1D2
:10127C00080319460C4801F091FB0346002B01D0E2
:10128C0000F085F800233B6000237B603B46194649
:10129C00054801F069FD0346002B01D000F077F8FA
:1012AC0000BF1837BD4680BD6800002080B586B0F1
:1012BC0000AF07F1080300221A605A609A60DA60E6
:1012CC00284B9B69274A43F004039361254B9B6988
:1012DC0003F004037B607B68224B9B69214A43F03B
:1012EC00080393611F4B9B6903F008033B603B6849
:1012FC0000224CF2F0311C4800F0ABFD002247F606
:10130C00FE711A4800F0A5FD0E23BB600023FB60A4
:10131C0001233B6107F108031946134800F006FC52
:10132C004CF2F033BB600123FB6000233B610223D2
:10133C007B6107F1080319460B4800F0F7FB47F6F1
:10134C00FE73BB600123FB6000233B6102237B61C6
:10135C0007F108031946054800F0E8FB00BF1837F1
:10136C00BD4680BD0010024000080140000C014049
:10137C0080B582B000AF78607B681B68B3F1804F9A
:10138C0001D100F025F800BF0837BD4680BD80B400
:10139C0000AF72B600BF00BFFDE7000080B582B0A1
:1013AC0000AF0023FB7106E0FB79184600F0D6F87D
:1013BC00FB790133FB71FB79272BF5D9034B002209
:1013CC001A6000BF0837BD4680BD00BFD0030020A7
:1013DC0080B483B000AF0023FB7160E0FA7934492C
:1013EC0013469B0013449B000B441B68002B53D0EB
:1013FC00FA792F4913469B0013449B000B4404338A
:10140C001B68002B32D1FA79294913469B001344EF
:10141C009B000B440C331B78FA790133D8B2244966
:10142C0013469B0013449B000B440C3302461A706A
:10143C00FA791F4913469B0013449B000B44083355
:10144C001B68002B28D0F979FA7919480B469B00B8
:10145C000B449B00034408331968154813469B0042
:10146C0013449B0003440433196015E0FA791049C6
:10147C0013469B0013449B000B4404331B680D4A1A
:10148C0012681146FA79591A094813469B001344FD
:10149C009B00034404331960FB790133FB71FB7926
:1014AC00272B9BD900BF00BF0C37BD4680BC7047B3
:1014BC00B0000020D403002080B487B000AFF860E7
:1014CC00B9607A600023FB7502E0FB7D0133FB758C
:1014DC00FA7D204913469B0013449B000B441B6868
:1014EC00002B02D0FB7D272BEFD9FB7D282B04D1C1
:1014FC00194B65221A60282327E0FA7D15491346FB
:10150C009B0013449B000B44FA681A60FA7D114946
:10151C0013469B0013449B000B440433BA681A60B7
:10152C00FA7D0C4913469B0013449B000B44083373
:10153C007A681A60FA7D074913469B0013449B0096
:10154C000B440C3300221A70FB7D18461C37BD4629
:10155C0080BC7047B0000020D003002080B485B060
:10156C0000AF0346FB71FA791E4913469B001344E6
:10157C009B000B441B68002B05D11B4B6C221A6083
:10158C006423FB7301E06323FB73FA79154913465B
:10159C009B0013449B000B4400221A60FA791149FA
:1015AC0013469B0013449B000B44043300221A6027
:1015BC00FA790C4913469B0013449B000B440833E7
:1015CC0000221A60FA79074913469B0013449B00CA
:1015DC000B440C3300221A70FB7B18461437BD46A3
:1015EC0080BC7047B0000020D003002080B582B0D2
:1015FC0000AF0023FB713AE0FA79224913469B00B5
:10160C0013449B000B440C331B78002B2CD0FA7921
:10161C001C4913469B0013449B000B441B689847C2
:10162C00FA79184913469B0013449B000B440C3366
:10163C001B78FA79013BD8B2124913469B0013442C
:10164C009B000B440C3302461A70FA790D49134671
:10165C009B0013449B000B4408331B68002B03D1E5
:10166C00FB791846FFF77AFFFB790133FB71FB79A5
:10167C00272BC1D900F00EF800F006F800BF083790
:10168C00BD4680BDB000002080B400AF00BFBD4699
:10169C0080BC704780B400AF00BFBD4680BC7047B3
:1016AC0080B485B000AF154B9B69144A43F001031D
:1016BC009361124B9B6903F00103BB60BB680F4B3A
:1016CC00DB690E4A43F08053D3610C4BDB6903F0AA
:1016DC0080537B607B680A4B5B68FB60FB6823F084
:1016EC00E063FB60FB6843F08063FB60044AFB68CB
:1016FC00536000BF1437BD4680BC704700100240D9
:10170C000000014080B584B000AF78607B681B6836
:10171C00B3F1804F13D10C4BDB690B4A43F001033F
:10172C00D361094BDB6903F00103FB60FB6800220A
:10173C0000211C2000F0C3F91C2000F0DCF900BFD4
:10174C001037BD4680BD00BF0010024080B400AF12
:10175C0000BFFDE780B400AF00BFFDE780B400AF71
:10176C0000BFFDE780B400AF00BFFDE780B400AF61
:10177C0000BFFDE780B400AF00BFBD4680BC704722
:10178C0080B400AF00BFBD4680BC704780B400AFD2
:10179C0000BFBD4680BC704780B500AF00F09CF820
:1017AC0000BF80BD80B500AF024801F007F800BF54
:1017BC0080BD00BF6800002080B400AF00BFBD46F4
:1017CC0080BC704780B485B000AFF860B9607A60B7
:1017DC00BB6801337A68013202FB03F34FF47A726F
:1017EC0003FB02F2FB68B2FBF3F31A46034B1A60DD
:1017FC0000BF1437BD4680BC704700BFD403002027
:10180C00FFF7DAFF0B480C490C4A002302E0D458CE
:10181C00C4500433C4188C42F9D3094A094C002330
:10182C0001E013600432A242FBD301F00FFBFFF77F
:10183C0085FC70470000002020000020E42E0008EA
:10184C0020000020DC030020FEE7000080B500AF84
:10185C00084B1B68074A43F010031360032000F089
:10186C0023F90F2000F008F8FFF71AFF00231846A1
:10187C0080BD00BF0020024080B582B000AF786010
:10188C00124B1A68124B1B7819464FF47A73B3FB40
:10189C00F1F3B2FBF3F3184600F03BF90346002BCF
:1018AC0001D001230EE07B680F2B0AD80022796847
:1018BC004FF0FF3000F003F9064A7B6813600023F9
:1018CC0000E0012318460837BD4680BD14000020F7
:1018DC001C0000201800002080B400AF054B1B78C2
:1018EC001A46054B1B681344034A136000BFBD46E0
:1018FC0080BC70471C000020D803002080B400AFCF
:10190C00024B1B681846BD4680BC7047D8030020AC
:10191C0080B485B000AF78607B6803F00703FB6090
:10192C000C4BDB68BB60BA684FF6FF031340BB601F
:10193C00FB681A02BB68134343F0BF6343F40033E4
:10194C00BB60044ABB68D36000BF1437BD4680BC83
:10195C00704700BF00ED00E080B400AF044BDB68C3
:10196C001B0A03F007031846BD4680BC704700BF36
:10197C0000ED00E080B483B000AF0346FB7197F933
:10198C000730002B0BDBFB7903F01F02064997F99C
:10199C0007305B09012000FA02F241F8232000BF56
:1019AC000C37BD4680BC704700E100E080B483B0CA
:1019BC0000AF03463960FB7197F90730002B0ADB47
:1019CC003B68DAB20C4997F907301201D2B20B44DA
:1019DC0083F800230AE03B68DAB20849FB7903F08C
:1019EC000F03043B1201D2B20B441A7600BF0C3722
:1019FC00BD4680BC704700BF00E100E000ED00E098
:101A0C0080B489B000AFF860B9607A60FB6803F00D
:101A1C000703FB61FB69C3F10703042B28BF0423F5
:101A2C00BB61FB690433062B02D9FB69033B00E065
:101A3C0000237B614FF0FF32BB6902FA03F3DA43F8
:101A4C00BB681A407B699A404FF0FF317B6901FA01
:101A5C0003F3D9437B680B40134318462437BD4628
:101A6C0080BC704780B582B000AF78607B68013B6A
:101A7C00B3F1807F01D301230FE00A4A7B68013B5D
:101A8C0053600F214FF0FF30FFF790FF054B002202
:101A9C009A60044B07221A60002318460837BD468B
:101AAC0080BD00BF10E000E080B582B000AF786070
:101ABC007868FFF72DFF00BF0837BD4680BD80B5A5
:101ACC0086B000AF0346B9607A60FB7300237B617C
:101ADC00FFF742FF78617A68B9687869FFF790FF81
:101AEC00024697F90F3011461846FFF75FFF00BF0B
:101AFC001837BD4680BD80B582B000AF0346FB7180
:101B0C0097F907301846FFF735FF00BF0837BD4679
:101B1C0080BD80B582B000AF78607868FFF7A2FF17
:101B2C00034618460837BD4680BD000080B48BB014
:101B3C0000AF7860396000237B6200233B6261E177
:101B4C0001227B6A02FA03F3FB613B681B68FA69AA
:101B5C001340BB61BA69FB699A4240F050813B6803
:101B6C005B68974A93425ED0954A934275D8954AE2
:101B7C00934258D0934A93426FD8934A934252D08F
:101B8C00914A934269D8914A93424CD08F4A9342DE
:101B9C0063D88F4A934246D08D4A93425DD8122B1C
:101BAC002AD8122B59D801A252F823F0331C000862
:101BBC000D1C00081F1C0008611C0008671C000895
:101BCC00671C0008671C0008671C0008671C0008DD
:101BDC00671C0008671C0008671C0008671C0008CD
:101BEC00671C0008671C0008671C0008671C0008BD
:101BFC00151C0008291C0008764A934213D02CE0CF
:101C0C003B68DB683B6229E03B68DB6804333B6282
:101C1C0024E03B68DB6808333B621FE03B68DB6811
:101C2C000C333B621AE03B689B68002B02D1042307
:101C3C003B6213E03B689B68012B05D108233B6298
:101C4C007B68FA691A6109E008233B627B68FA69D0
:101C5C005A6103E000233B6200E000BFBB69FF2B2D
:101C6C0001D87B6801E07B6804337B61BB69FF2B87
:101C7C0002D87B6A9B0002E07B6A083B9B003B61BD
:101C8C007B691A680F213B6901FA03F3DB431A40A5
:101C9C00396A3B6901FA03F31A437B691A603B68A2
:101CAC005B6803F08053002B00F0A9804A4B9B69C2
:101CBC00494A43F001039361474B9B6903F00103CD
:101CCC00BB60BB68454A7B6A9B08023352F82330E1
:101CDC00FB607B6A03F003039B000F2202FA03F301
:101CEC00DB43FA681340FB607B683D4A93420DD09E
:101CFC007B683C4A934207D07B683B4A934201D1B4
:101D0C00022304E0032302E0012300E000237A6AAB
:101D1C0002F0030292009340FA681343FB602F49D0
:101D2C007B6A9B080233FA6841F823203B685B68A6
:101D3C0003F48013002B06D02C4B9A682B49BB69FB
:101D4C0013438B6006E0294B9A68BB69DB43274938
:101D5C0013408B603B685B6803F40013002B06D0C8
:101D6C00224BDA682149BB691343CB6006E01F4B59
:101D7C00DA68BB69DB431D491340CB603B685B6889
:101D8C0003F40033002B06D0184B5A681749BB6973
:101D9C0013434B6006E0154B5A68BB69DB43134990
:101DAC0013404B603B685B6803F48033002B1FD0FF
:101DBC000E4B1A680D49BB6913430B601FE000BF43
:101DCC000000321000003110000022100000211021
:101DDC000000121000001110001002400000014021
:101DEC0000080140000C01400010014000040140BB
:101DFC000B4B1A68BB69DB43094913400B607B6AC8
:101E0C0001337B623B681A687B6A22FA03F3002B6E
:101E1C007FF496AE00BF00BF2C37BD4680BC704728
:101E2C000004014080B485B000AF78600B467B8025
:101E3C007B689A687B881340002B02D00123FB73CC
:101E4C0001E00023FB73FB7B18461437BD4680BCB6
:101E5C00704780B483B000AF78600B467B8013462C
:101E6C007B707B78002B03D07A887B681A6103E047
:101E7C007B881A047B681A6100BF0C37BD4680BC96
:101E8C00704780B485B000AF78600B467B807B6870
:101E9C00DB68FB607A88FB6813401A04FB68D94343
:101EAC007B880B401A437B681A6100BF1437BD4610
:101EBC0080BC704780B586B000AF78607B68002B23
:101ECC0001D1012372E27B681B6803F00103002B34
:101EDC0000F08780924B5B6803F00C03042B0CD052
:101EEC008F4B5B6803F00C03082B12D18C4B5B6897
:101EFC0003F48033B3F5803F0BD1894B1B6803F49B
:101F0C000033002B6CD07B685B68002B68D10123FD
:101F1C004CE27B685B68B3F5803F06D1804B1B6855
:101F2C007F4A43F4803313602EE07B685B68002BA0
:101F3C000CD17B4B1B687A4A23F480331360784BAB
:101F4C001B68774A23F4802313601DE07B685B6871
:101F5C00B3F5A02F0CD1724B1B68714A43F480234C
:101F6C0013606F4B1B686E4A43F4803313600BE0B5
:101F7C006B4B1B686A4A23F480331360684B1B68F5
:101F8C00674A23F4802313607B685B68002B13D0B3
:101F9C00FFF7B4FC386108E0FFF7B0FC02463B6980
:101FAC00D31A642B01D9032300E25D4B1B6803F4A5
:101FBC000033002BF0D014E0FFF7A0FC386108E0F0
:101FCC00FFF79CFC02463B69D31A642B01D903230F
:101FDC00ECE1534B1B6803F40033002BF0D100E011
:101FEC0000BF7B681B6803F00203002B63D04C4BD3
:101FFC005B6803F00C03002B0BD0494B5B6803F0C0
:10200C000C03082B1CD1464B5B6803F48033002B6C
:10201C0016D1434B1B6803F00203002B05D07B68E1
:10202C001B69012B01D00123C0E13D4B1B6823F040
:10203C00F8027B685B69DB00394913430B603AE0BB
:10204C007B681B69002B20D0364B01221A60FFF7EE
:10205C0055FC386108E0FFF751FC02463B69D31A86
:10206C00022B01D90323A1E12D4B1B6803F00203C2
:10207C00002BF0D02A4B1B6823F0F8027B685B69BD
:10208C00DB00274913430B6015E0264B00221A6036
:10209C00FFF734FC386108E0FFF730FC02463B697F
:1020AC00D31A022B01D9032380E11D4B1B6803F0CB
:1020BC000203002BF0D17B681B6803F00803002B94
:1020CC003AD07B689B69002B19D0174B01221A6000
:1020DC00FFF714FC386108E0FFF710FC02463B697F
:1020EC00D31A022B01D9032360E10D4B5B6A03F079
:1020FC000203002BF0D0012000F0A6FA1CE00A4BE2
:10210C0000221A60FFF7FAFB38610FE0FFF7F6FBCD
:10211C0002463B69D31A022B08D9032346E100BFC0
:10212C00001002400000424280044242924B5B6A23
:10213C0003F00203002BE9D17B681B6803F0040356
:10214C00002B00F0A6800023FB758B4BDB6903F0A2
:10215C008053002B0DD1884BDB69874A43F08053A9
:10216C00D361854BDB6903F08053BB60BB680123F3
:10217C00FB75824B1B6803F48073002B18D17F4BCB
:10218C001B687E4A43F480731360FFF7B7FB38611A
:10219C0008E0FFF7B3FB02463B69D31A642B01D965
:1021AC00032303E1754B1B6803F48073002BF0D001
:1021BC007B68DB68012B06D16F4B1B6A6E4A43F0C0
:1021CC00010313622DE07B68DB68002B0CD16A4B9A
:1021DC001B6A694A23F001031362674B1B6A664A48
:1021EC0023F0040313621CE07B68DB68052B0CD125
:1021FC00614B1B6A604A43F0040313625E4B1B6A1B
:10220C005D4A43F0010313620BE05B4B1B6A5A4AB5
:10221C0023F001031362584B1B6A574A23F0040343
:10222C0013627B68DB68002B15D0FFF767FB386106
:10223C000AE0FFF763FB02463B69D31A41F288328E
:10224C00934201D90323B1E04B4B1B6A03F0020309
:10225C00002BEED014E0FFF751FB38610AE0FFF7DA
:10226C004DFB02463B69D31A41F28832934201D9A5
:10227C0003239BE0404B1B6A03F00203002BEED1BF
:10228C00FB7D012B05D13C4BDB693B4A23F0805392
:10229C00D3617B68DB69002B00F08780364B5B6871
:1022AC0003F00C03082B61D07B68DB69022B46D151
:1022BC00334B00221A60FFF721FB386108E0FFF76F
:1022CC001DFB02463B69D31A022B01D903236DE097
:1022DC00294B1B6803F00073002BF0D17B681B6A41
:1022EC00B3F5803F08D1244B5B6823F400327B6844
:1022FC009B68214913434B601F4B5B6823F474129A
:10230C007B68196A7B685B6A0B431B4913434B6000
:10231C001B4B01221A60FFF7F1FA386108E0FFF756
:10232C00EDFA02463B69D31A022B01D903233DE097
:10233C00114B1B6803F00073002BF0D035E0104BF1
:10234C0000221A60FFF7DAFA386108E0FFF7D6FAD4
:10235C0002463B69D31A022B01D9032326E0064B14
:10236C001B6803F00073002BF0D11EE07B68DB6967
:10237C00012B07D1012319E000100240007000402E
:10238C00600042420B4B5B68FB60FB6803F48032DD
:10239C007B681B6A9A4206D1FB6803F470127B6857
:1023AC005B6A9A4201D0012300E0002318461837DB
:1023BC00BD4680BD0010024080B584B000AF78608F
:1023CC0039607B68002B01D10123D0E06A4B1B687C
:1023DC0003F007033A689A4210D9674B1B6823F045
:1023EC00070265493B6813430B60634B1B6803F0A2
:1023FC0007033A689A4201D00123B8E07B681B6856
:10240C0003F00203002B20D07B681B6803F004034D
:10241C00002B05D0594B5B68584A43F4E06353607A
:10242C007B681B6803F00803002B05D0534B5B68DB
:10243C00524A43F460535360504B5B6823F0F002F4
:10244C007B689B684D4913434B607B681B6803F0AA
:10245C000103002B40D07B685B68012B07D1474BF5
:10246C001B6803F40033002B15D101237FE07B683C
:10247C005B68022B07D1414B1B6803F00073002BE8
:10248C0009D1012373E03D4B1B6803F00203002BC1
:10249C0001D101236BE0394B5B6823F003027B68AD
:1024AC005B68364913434B60FFF728FAF8600AE083
:1024BC00FFF724FA0246FB68D31A41F288329342A2
:1024CC0001D9032353E02D4B5B6803F00C027B68AE
:1024DC005B689B009A42EBD1274B1B6803F0070308
:1024EC003A689A4210D2244B1B6823F00702224907
:1024FC003B6813430B60204B1B6803F007033A68DF
:10250C009A4201D0012332E07B681B6803F004037C
:10251C00002B08D0194B5B6823F4E0627B68DB6806
:10252C00164913434B607B681B6803F00803002BB0
:10253C0009D0124B5B6823F460527B681B69DB008B
:10254C000E4913434B6000F021F802460B4B5B68BD
:10255C001B0903F00F030A49CB5C22FA03F3094A67
:10256C001360094B1B681846FFF786F900231846C1
:10257C001037BD4680BD00BF002002400010024055
:10258C00B82E0008140000201800002080B487B07A
:10259C0000AF0023FB600023BB6000237B610023A2
:1025AC007B6000233B611E4B5B68FB60FB6803F0A8
:1025BC000C03042B02D0082B03D027E0194B3B61F2
:1025CC0027E0FB689B0C03F00F03174AD35C7B607E
:1025DC00FB6803F48033002B10D0114B5B685B0C51
:1025EC0003F00103114AD35CBB607B680D4A03FB0B
:1025FC0002F2BB68B2FBF3F37B6104E07B680C4A2C
:10260C0002FB03F37B617B693B6102E0054B3B61A1
:10261C0000BF3B6918461C37BD4680BC704700BFE5
:10262C000010024000127A00C82E0008D82E0008B4
:10263C0000093D0080B400AF024B1B681846BD4634
:10264C0080BC70471400002080B485B000AF786067
:10265C000A4B1B680A4AA2FB03235B0A7A6802FB3B
:10266C0003F3FB6000BFFB685A1EFA60002BF9D124
:10267C0000BF00BF1437BD4680BC7047140000205B
:10268C00D34D621080B582B000AF78607B68002BB0
:10269C0001D1012341E07B6893F83D30DBB2002B84
:1026AC0006D17B68002283F83C207868FFF72AF873
:1026BC007B68022283F83D207B681A687B680433B0
:1026CC001946104600F056FA7B68012283F8462022
:1026DC007B68012283F83E207B68012283F83F202F
:1026EC007B68012283F840207B68012283F841201B
:1026FC007B68012283F842207B68012283F8432007
:10270C007B68012283F844207B68012283F84520F2
:10271C007B68012283F83D20002318460837BD460C
:10272C0080BD000080B485B000AF78607B6893F802
:10273C003D30DBB2012B01D0012335E07B68022256
:10274C0083F83D207B681B68DA687B681B6842F065
:10275C000102DA607B681B68164A934209D07B68D9
:10276C001B68B3F1804F04D07B681B68124A9342FC
:10277C0011D17B681B689B6803F00703FB60FB6847
:10278C00062B10D07B681B681A687B681B6842F0AC
:10279C0001021A6007E07B681B681A687B681B687B
:1027AC0042F001021A60002318461437BD4680BC63
:1027BC00704700BF002C01400004004080B584B07D
:1027CC0000AF78607B681B68DB68FB607B681B680C
:1027DC001B69BB60BB6803F00203002B20D0FB68B5
:1027EC0003F00203002B1BD07B681B686FF0020206
:1027FC001A617B6801221A777B681B689B6903F05E
:10280C000303002B03D0786800F098F905E0786892
:10281C0000F08BF9786800F09AF97B6800221A773F
:10282C00BB6803F00403002B20D0FB6803F0040307
:10283C00002B1BD07B681B686FF004021A617B684D
:10284C0002221A777B681B689B6903F44073002B88
:10285C0003D0786800F072F905E0786800F065F94B
:10286C00786800F074F97B6800221A77BB6803F073
:10287C000803002B20D0FB6803F00803002B1BD0AF
:10288C007B681B686FF008021A617B6804221A7758
:10289C007B681B68DB6903F00303002B03D07868AB
:1028AC0000F04CF905E0786800F03FF9786800F02A
:1028BC004EF97B6800221A77BB6803F01003002BDB
:1028CC0020D0FB6803F01003002B1BD07B681B6827
:1028DC006FF010021A617B6808221A777B681B68FC
:1028EC00DB6903F44073002B03D0786800F026F901
:1028FC0005E0786800F019F9786800F028F97B6831
:10290C0000221A77BB6803F00103002B0CD0FB6884
:10291C0003F00103002B07D07B681B686FF00102EA
:10292C001A617868FEF724FDBB6803F08003002B66
:10293C000CD0FB6803F08003002B07D07B681B686E
:10294C006FF080021A61786800F06FFABB6803F0D0
:10295C004003002B0CD0FB6803F04003002B07D086
:10296C007B681B686FF040021A61786800F0F8F819
:10297C00BB6803F02003002B0CD0FB6803F0200392
:10298C00002B07D07B681B686FF020021A617868F7
:10299C0000F042FA00BF1037BD4680BD80B584B050
:1029AC0000AF786039600023FB737B6893F83C3090
:1029BC00012B01D10223B4E07B68012283F83C2077
:1029CC007B68022283F83D207B681B689B68BB6098
:1029DC00BB6823F07703BB60BB6823F47F43BB6009
:1029EC007B681B68BA689A603B681B68B3F5005F2C
:1029FC003ED0B3F5005F00F28780B3F5805F00F046
:102A0C008680B3F5805F7FD8702B1AD0702B7BD863
:102A1C00602B50D0602B77D8502B3CD0502B73D8D8
:102A2C00402B58D0402B6FD8302B64D0302B6BD828
:102A3C00202B60D0202B67D8002B5CD0102B5AD0C9
:102A4C0062E07B6818683B6899683B685A683B6829
:102A5C00DB6800F06AF97B681B689B68BB60BB682D
:102A6C0043F07703BB607B681B68BA689A604FE0E1
:102A7C007B6818683B6899683B685A683B68DB68F8
:102A8C0000F053F97B681B689A687B681B6842F4FA
:102A9C0080429A603CE07B6818683B6859683B68E8
:102AAC00DB681A4600F0CAF87B681B685021184690
:102ABC0000F021F92CE07B6818683B6859683B688A
:102ACC00DB681A4600F0E8F87B681B686021184642
:102ADC0000F011F91CE07B6818683B6859683B688A
:102AEC00DB681A4600F0AAF87B681B684021184680
:102AFC0000F001F90CE07B681A683B681B6819460A
:102B0C00104600F0F8F803E00123FB7300E000BF6F
:102B1C007B68012283F83D207B68002283F83C20EF
:102B2C00FB7B18461037BD4680BD80B483B000AF28
:102B3C00786000BF0C37BD4680BC704780B483B052
:102B4C0000AF786000BF0C37BD4680BC704780B4C6
:102B5C0083B000AF786000BF0C37BD4680BC7047B7
:102B6C0080B483B000AF786000BF0C37BD4680BC2A
:102B7C007047000080B485B000AF786039607B6826
:102B8C001B68FB607B682B4A934207D07B68B3F1D0
:102B9C00804F03D07B68284A934208D1FB6823F00E
:102BAC007003FB603B685B68FA681343FB607B68EF
:102BBC00204A934207D07B68B3F1804F03D07B68E7
:102BCC001D4A934208D1FB6823F44073FB603B68B9
:102BDC00DB68FA681343FB60FB6823F080023B68F8
:102BEC005B691343FB607B68FA681A603B689A6800
:102BFC007B68DA623B681A687B689A627B680D4A6C
:102C0C00934203D13B681A697B681A637B68012283
:102C1C005A617B681B6903F00103002B05D07B68AC
:102C2C001B6923F001027B681A6100BF1437BD4693
:102C3C0080BC7047002C01400004004080B487B079
:102C4C0000AFF860B9607A60FB681B6A7B61FB6857
:102C5C001B6A23F00102FB681A62FB689B693B61EB
:102C6C003B6923F0F0033B617B681B013A6913431A
:102C7C003B617B6923F00A037B617A69BB68134370
:102C8C007B61FB683A699A61FB687A691A6200BFDA
:102C9C001C37BD4680BC704780B487B000AFF8606D
:102CAC00B9607A60FB681B6A7B61FB681B6A23F066
:102CBC001002FB681A62FB689B693B613B6923F459
:102CCC0070433B617B681B033A6913433B617B692F
:102CDC0023F0A0037B61BB681B017A6913437B6102
:102CEC00FB683A699A61FB687A691A6200BF1C3703
:102CFC00BD4680BC704780B485B000AF7860396049
:102D0C007B689B68FB60FB6823F07003FB603A6890
:102D1C00FB68134343F00703FB607B68FA689A6017
:102D2C0000BF1437BD4680BC704780B487B000AF7D
:102D3C00F860B9607A603B60FB689B687B617B697B
:102D4C0023F47F437B613B681A027B681A43BB68A0
:102D5C0013437A6913437B61FB687A699A6000BFFD
:102D6C001C37BD4680BC704780B485B000AF78601E
:102D7C0039607B6893F83C30012B01D1022341E090
:102D8C007B68012283F83C207B68022283F83D207B
:102D9C007B681B685B68FB607B681B689B68BB601F
:102DAC00FB6823F07003FB603B681B68FA681343F5
:102DBC00FB607B681B68FA685A607B681B68144A66
:102DCC00934209D07B681B68B3F1804F04D07B68B9
:102DDC001B68104A93420CD1BB6823F08003BB6084
:102DEC003B685B68BA681343BB607B681B68BA6856
:102DFC009A607B68012283F83D207B68002283F86F
:102E0C003C20002318461437BD4680BC704700BFD9
:102E1C00002C01400004004080B483B000AF786007
:102E2C0000BF0C37BD4680BC704780B483B000AF88
:102E3C00786000BF0C37BD4680BC70470346024427
:102E4C00934200D1704703F8011BF9E770B50026D7
:102E5C000C4D0D4C641BA410A64209D100F01AF8BD
:102E6C0000260A4D0A4C641BA410A64205D170BD65
:102E7C0055F8043B98470136EEE755F8043B984764
:102E8C000136F2E7DC2E0008DC2E0008DC2E0008F0
:102E9C00E02E0008F8B500BFF8BC08BC9E46704791
:0C2EAC00F8B500BFF8BC08BC9E4670479B
:102EB80000000000000000000102030406070809E2
:102EC80002030405060708090A0B0C0D0E0F101063
:042ED80001020000F3
:042EDC0031010008B8
:042EE0000D010008D8
:102EE4000502030502030000014F12064C24200FC3
:102EF4000004000000127A0010000000010000002D
:040000050800180DCA
:00000001FF
